:020000040800F2
:100000000807002089010008AD0400082D0400083D
:10001000A90400085D030008E10A000800000000D0
:100020000000000000000000000000003906000889
:1000300061030008000000002505000829070008EA
:10004000A3010008A3010008A3010008A301000800
:10005000A3010008A3010008A3010008A3010008F0
:10006000A3010008A3010008A3010008A3010008E0
:10007000A3010008A3010008A3010008A3010008D0
:10008000A3010008A3010008A3010008A3010008C0
:10009000A3010008A3010008A3010008A3010008B0
:1000A000A3010008A3010008A3010008A3010008A0
:1000B000A3010008A3010008A3010008A301000890
:1000C000A3010008A3010008A3010008A301000880
:1000D000A301000885090008A30100088909000898
:1000E00065030008A3010008A301000800F002F85E
:1000F00000F03AF80AA090E8000C82448344AAF188
:100100000107DA4501D100F02FF8AFF2090EBAE885
:100110000F0013F0010F18BFFB1A43F0010318473B
:100120000021000020210000103A24BF78C878C1C7
:10013000FAD8520724BF30C830C144BF04680C60ED
:10014000704700000023002400250026103A28BF35
:1001500078C1FBD8520728BF30C148BF0B60704739
:100160001FB51FBD10B510BD00F0BDF81146FFF75B
:10017000F7FF00F00FFE00F0DBF803B4FFF7F2FF2B
:1001800003BC00F0E3F80000094880470948004735
:10019000FEE7FEE7FEE7FEE7FEE7FEE7FEE7FEE737
:1001A000FEE7FEE704480549054A064B7047000094
:1001B00039070008ED0000080801002008070020AA
:1001C000080300200803002040EA010310B59B0744
:1001D0000FD1042A0DD310C808C9121F9C42F8D0B1
:1001E00020BA19BA884201D9012010BD4FF0FF3062
:1001F00010BD1AB1D30703D0521C07E0002010BD78
:1002000010F8013B11F8014B1B1B07D110F8013B03
:1002100011F8014B1B1B01D1921EF1D1184610BDE4
:1002200010B5431C02E010F8011B71B18107FAD12F
:100230004FF0013202C88C1A8C4314EAC211F9D073
:10024000C01A0A0603D0C01E10BDC01A10BD0A0491
:1002500001D0801E10BD0902FCD0401E10BD000060
:100260004FF0013C50F8042B51F8043B9A4221D145
:10027000A2EB0C03934313EACC1317D150F8042BD1
:1002800051F8043B9A4215D1A2EB0C03934313EAB5
:10029000CC130BD150F8042B51F8043B9A4209D1EE
:1002A000A2EB0C03934313EACC13DBD04FF0000016
:1002B000704700BFD01A01BAB1FA81F101F01801FC
:1002C00022FA01F0CB40DBB2C0B2C01AC1F120016A
:1002D0002CFA01F3D11A914311EAC311E6D1704708
:1002E000704770477047754600F02CF8AE46050021
:1002F0006946534620F00700854618B020B5FFF741
:1003000051FFBDE820404FF000064FF000074FF0CE
:1003100000084FF0000BAC46ACE8C009ACE8C009DF
:10032000ACE8C009ACE8C00921F007018D46704770
:1003300010B50446AFF300802046BDE81040FFF73B
:100340001CBF000000487047080000200149182029
:10035000ABBEFEE72600020070470000FEE700008B
:1003600070470000704700002DE9F041CA7802F0A4
:100370000F0CD30644BF8B784CEA030C09880B069C
:1003800021D0056800234FF001084FF00F0E002622
:1003900008E000BF282A08BF47610136082E03F194
:1003A00004030FD008FA06F70F42F6D00EFA03F452
:1003B00025EA04040CFA03F5482A45EA0405E9D1C4
:1003C0000761EAE70560B1F5807F38BFBDE8F081DD
:1003D000446800234FF4807E4FF00F08002607E0AA
:1003E000282A08BF47610136082E03F1040310D004
:1003F0000EFA06F707EA0105BD42F4D108FA03F543
:10040000AC430CFA03F5482A44EA0504E8D1076135
:10041000E9E74460BDE8F0818068084018BF01202A
:10042000704700004161704701617047FEE70000BE
:1004300043F20000C4F200004CF6CC41016070476A
:1004400043F20000C4F200004AF6AA21016070479E
:1004500043F20401C4F200010860704743F208014E
:10046000C4F200010860704743F20001C4F20001C9
:100470000860704710B582B01020012100F060F8CC
:1004800042F2000041F20004C1F20200C4F2010491
:10049000019001A92046FFF767FF20464FF4005165
:1004A000FFF7C2FF02B010BDFEE70000704700007A
:1004B00010B5C17800294EF20011CEF200011AD019
:1004C0004EF60C52CEF200021268072323EA1222E3
:1004D0000F23C2F1040C23FA02F24378847890F8D7
:1004E00000E003FA0CF322401A43120101EB0E0361
:1004F00083F8002300E080310078012300F01F0220
:1005000003FA02F2C0F3421041F8202010BD0000AF
:1005100040F080604EF60C5140F0FD70CEF20001CC
:100520000860704770470000002941F21C01C4F2C6
:1005300002010A680CBF22EA0000104308607047FD
:10054000002941F21801C4F202010A680CBF22EA34
:10055000000010430860704741F22400C4F202001A
:10056000016841F0807101607047000010B541F2F0
:100570000404C4F20204226802F00C02082A41F2C8
:100580000022C0F27A021CD12368D4F800C0C3F361
:10059000834E5FEACC330EF1020C06D440F6001213
:1005A000C0F23D020CFB02F20BE023689B0302D475
:1005B0000CFB02F205E040F60012C0F23D020CFB1B
:1005C00002F20260226842F27213C2F30312C0F612
:1005D00000039A5C0168D14041602268C2F30222A4
:1005E0009A5C21FA02F282602268C2F3C2229A5C0B
:1005F00042F26E13D140C1602268C0F60003C2F31C
:1006000081329A5CB1FBF2F1016110BD0121B1EBC5
:10061000501F41F20001C4F2020104D04209022A33
:1006200014BF24312031096800F01F0021FA00F0C6
:1006300000F00100704700007047000080B500F036
:1006400001F880BD82B041F204000021C4F2020032
:100650000191009150F8041C41F4803140F8041CD1
:1006600050F8041C01F4003100910199013101910D
:10067000009919B90199B1F5A06FF1D150F8041C96
:10068000890354BF0021012100910099012936D12D
:1006900042F20001C4F202010A6842F010020A604C
:1006A0000A6822F007020A600A6842F002020A6041
:1006B0000168016001680160016841F480610160C6
:1006C000016821F47C110160016841F4E8110160C6
:1006D00050F8041C41F0807140F8041C50F8041CD0
:1006E0008901FBD5016821F003010160016841F037
:1006F00002010160016801F00C010829FAD102B081
:1007000070470000B0B501380024B4EB106F18BF7B
:10071000B0BD4EF21005CEF20005686000F0E2F9BF
:100720000720AC602860B0BD40F2F400C2F20000C7
:10073000016801310160704780B541F20000C4F2E8
:1007400002000168002241F0010101604168CFF61A
:10075000FF021140416001684FF6FF72CFF6F6626A
:1007600011400160016821F480210160416821F499
:10077000FE0141604FF41F018160FFF75FFF4EF6FD
:100780000850CEF200004FF00061016080BD000013
:100790000288002918BF012122F0800242EAC1111B
:1007A000018070470288002918BF012122F0010250
:1007B0001144018070470000B0B5028C43F2004440
:1007C00022F480720284028C8588B0F81CC00B89E8
:1007D00022F4007242EA03224B88C4F20104B1F809
:1007E00000E0A04242EA032205D042F60043C4F2F0
:1007F0000103984212D14B8940F2FF441B0222F4BC
:100800004062A3438C881A4342EA04228C8925F46F
:100810004053CD8943EA041343EA05152CF07303D2
:1008200043EA0E0385808383C98881870284B0BD33
:10083000828B22F0080211438183704770B5028CCD
:1008400043F2004622F480520284048C8288838B17
:10085000B1F800E00D89B1F802C0C4F20106B0425F
:1008600005D042F60046C4F20106B04204D18E899A
:1008700022F4804242EA861223F4E64343EA0E233E
:1008800024F400548280838344EA0534C98844EA0E
:100890000C32A0F84010028470BD0000828B22F45C
:1008A000006242EA01218183704700000021C1609B
:1008B000816041600160704781877047A0F84010F7
:1008C0007047000040F6FF33B0F800C0C4F20003E8
:1008D00098420FDCB0F1804F1ED040F20043C4F2CA
:1008E0000003984218D040F60003C4F20003984277
:1008F00012D016E040F60043C4F2000398420BD039
:1009000043F20043C4F20103984205D042F600438B
:10091000C4F20103984204D14B882CF0700243EAE0
:10092000020C41F2004240F48063C4F200029342A0
:1009300004D0CA882CF4407342EA030CA0F800C02B
:100940008A888285A0F18042A2F596320B884FEA10
:10095000B222072A038507D8012303FA02F212F014
:10096000E50F1CBF097A01860121818270470000D2
:1009700000220021CFF6FF720180C180C0F8022062
:10098000017270477047000080B500F0C9FD80BD5E
:10099000C9430180704700008289002918BF0121E6
:1009A00022F4005242EA41318181704700880840B8
:1009B00018BF012070470000C1F34212022A06D07E
:1009C000012A14BF00F1140200F10C0201E000F151
:1009D00010021288008801F01F03090ADA40C8409B
:1009E000104000F001007047C1F3421301F01F0CEA
:1009F0001421022B08BF1021012B4FF0010308BF67
:100A00000C21002A03FA0CF243580CBF23EA02021D
:100A10001A4342507047000070B586B00446008A01
:100A20000D46C98820F4405008432082A0894EF624
:100A3000F3110840A9882A896B8908431043184399
:100A4000A081A08AA98920F44070084301AEA08249
:100A50003046FFF78BFD43F6000106F10800C4F2B3
:100A600001018C4208BF06F10C0000681922B4F99C
:100A70000C1050432A680123B1F1FF3FC8BF022385
:100A800002FA03F1B0FBF1F048F21F51C5F2EB118D
:100A9000A0FB01235A096FF0630302FB0300B4F9C2
:100AA0000C300326B3F1FF3FC8BF042600FA06F05E
:100AB00000F13200A0FB01014FF00700C8BF0F207A
:100AC00000EA511040EA0210208106B070BD00001B
:100AD00080886FF35F2070476FF35F2181807047DC
:100AE000FEE700004EF62350CEF20000F021017028
:100AF000704700000A1A98BF421A1046704700005B
:100B00001378002B04BF08467047013A435493788A
:100B100001F1010C0132002B6146F7D160467047AC
:100B200070B583B03AB34CF6CD4E0024CCF6CC4E23
:100B30000DF1020CA2FB0E35ED0805EB8503A2EBCF
:100B4000430343F03006631C0CF80460092A1C467A
:100B50002A46EFD8013800220CEB02061E4416F894
:100B6000016C541E1A4445180130012A22466E7049
:100B7000F2DC0A1B02E030234A1C4354104603B047
:100B800070BD0000B0B540F2F200C2F20000007883
:100B900001281ED140F20400C2F20000027840F2A7
:100BA000E73102EB8200430040F2E7348B4238BF6A
:100BB000440040F20500C2F200000078002A08BF9D
:100BC000144648B100EB800042008A4238BF410021
:100BD00003E00021002400E0002140F60005C4F2FB
:100BE00000052846FFF768FE28462146FFF766FE07
:100BF000B0BD0000B0B540F2F205C2F20005002021
:100C00002870FFF7BFFF40F60044C4F201042046FD
:100C10004FF48041FFF708FC20464FF40041FFF7F6
:100C200001FC20464FF48051FFF7FEFB20464FF4B5
:100C30000051FFF7F7FB01202870FFF7A3FFB0BDBD
:100C400080B500F081F880BD2820704740F2060092
:100C5000C2F2000000787047B0B540F2F205C2F26F
:100C6000000500202870FFF78DFF40F60044C4F215
:100C7000010420464FF48041FFF7D6FB20464FF495
:100C80000041FFF7CFFB20464FF48051FFF7CAFB2E
:100C900020464FF40051FFF7C7FB01202870FFF7F3
:100CA00071FFB0BDB0B540F2F205C2F20005002000
:100CB0002870FFF767FF40F60044C4F201042046A5
:100CC0004FF48041FFF7AEFB20464FF40041FFF7A1
:100CD000ABFB20464FF48051FFF7A6FB20464FF4B4
:100CE0000051FFF79FFB01202870FFF74BFFB0BDBD
:100CF00080B540F20601C2F20001642828BF6420DA
:100D0000087040F20401C2F20001087040F20501CF
:100D1000C2F200010870FFF735FF80BD80B5642284
:100D2000642828BF1046642938BF0A4640F20401EF
:100D3000C2F20001087040F20500C2F20000027029
:100D4000FFF720FF80BD0000B0B540F2F205C2F20F
:100D5000000500202870FFF715FF40F60044C4F29C
:100D6000010420464FF48041FFF75CFB20464FF41E
:100D70000041FFF759FB20464FF48051FFF752FB2B
:100D800020464FF40051FFF74FFB01202870FFF77A
:100D9000F9FEB0BD98B04FF0000B8DF83FB0CDF824
:100DA00038B0CDF840B010994AF22010C0F20700D8
:100DB000814206D200BF10990131109110998142F1
:100DC000F8D341F20004C4F2010401F0BFF94FF47A
:100DD000A060FFF79DFB00F063FBFFF74BFB01F00A
:100DE0003DF900F0AFFF01F05FF940F20000C2F200
:100DF0000000006844F6D351C1F26201A0FB01017A
:100E00008809FFF77FFC00F0F5FD002000F0A8FE48
:100E1000FFF71CFF00F0D8FE00F052FB20464FF415
:100E20000051FFF7FFFAFF2005904FF0FF300690CA
:100E300000200A90FF200490FF20039000200C90D7
:100E400000200B900020099000200DF13F040DF1CF
:100E5000400801264FF0000A00214FF000090090E1
:100E6000002000270025089004E000BFFFF7DAFA11
:100E700031460126019109E040F2F400C2F200007F
:100E800000680899401A642880F09682FFF7D8FA23
:100E9000BAF1000F1CD00C98C0B2012814D100F098
:100EA000E1FF0E9001F060F870B100F009FB4FF027
:100EB000000ACDF838A000F011FF032003210C91A7
:100EC00000F04EFE06E000BF4FF0010A02E000BF56
:100ED0004FF0000A0C9840F2F4010138099AC0B2B0
:100EE000C2F2000101285BD80868801A782851D323
:100EF0000868099001F066F8044600F069FF0646AC
:100F000000F07AFF079000F099FF069983460131BF
:100F1000022906D32CB106992046FFF7EBFD0A28DB
:100F200004D3204600F0FEFD204606940598C0B28A
:100F3000864208D104980799C0B2814203D1039830
:100F4000C0B283450CD0304602943446079E5A46C0
:100F5000314600F06FFECDE90464029CCDF80CB080
:100F60000C98C0B2022820D100F0AAFA611E00201D
:100F7000E5290E9033D30A984FF0000B0130022878
:100F80000DF13F044FF0010680F0FD8101200A9031
:100F900032E000BF0C98C0B201282DD0022801D049
:100FA00000200A9000200B9026E0601EB32819D87C
:100FB0000B980130032818D300F082FA002100209A
:100FC0000A900E91022002210C9100F0C9FD2046EA
:100FD00000F0DCFD00200B904FF0000A06E000203E
:100FE0000A9003E000200A9000200B904FF0000BC5
:100FF0000DF13F04012600BF204600F0CFFA012882
:1010000035DAB9F1000F7FF437AF0E98002840F2BF
:10101000F400C2F2000000F0AB81006808994FF0C4
:101020000009401AB0F5FA7FFFF430AF40F2F40047
:10103000C2F2000000684FF40051089000980028A8
:1010400080F0010641F20000C4F2010000F0AD8121
:10105000FFF7EAF9ABE10FF2A830192100F052FADC
:1010600000270025204600F099FA0028C9DD9DF8E8
:101070003F00A0F1420111290ED840F2114206FAB8
:1010800001F1C0F20302114206D0002D42D00D281A
:1010900006D00A2804D035E00A2801D00D2831D125
:1010A000002F08F805B0D6D1012DD9DB40460DF14F
:1010B00037018DF837B000F0F3FA8346404600F070
:1010C00045FB0446404600F089FB0546404600F0DB
:1010D000DBFB0746404600F00FFB74B3012C42D106
:1010E00000F0FCFD012001210C9100F039FDCFA0A2
:1010F0000B2100F007FA00200A9000200B904FF01F
:10110000010ABDE01E2DDABF08F8050001350127F0
:10111000A8E700BF002000210C9100F021FD9DF800
:101120003F000EA900F010FC4FF0000A0025B9F1B5
:10113000000F08BF4FF0060994E70020002400F0DC
:101140000FFD00F0BDF900200C9041F20000C4F248
:1011500001004FF400510E94FFF764F9AFA00F2186
:1011600000F0D0F98AE006464046B3A10322FFF71B
:101170002BF870B34046B1A10522FFF725F80028EF
:1011800040D0BDF84000462853D0BDF8400042286A
:1011900056D0BDF840004C2859D0BDF84000522828
:1011A0005CD0BDF8400053285FD0BBF1010F72D175
:1011B000002000210C9100F0D3FC9DF83740204620
:1011C00000F07AF9204600F0FFFC204600F018FD00
:1011D00054E0002000210C9100F0C2FC00F0AAFBBA
:1011E00000F05AF942F20B200126C0F60000082157
:1011F0000E9600F087F94FF0000A4FF0000B0DF14A
:101200003F0442E00020002400F0AAFC00F058F95E
:1012100000200C9041F20000C4F201004FF4005194
:101220000E94FFF7FFF842F21420C0F600000A21E6
:1012300096E7002000210C9100F092FC46201AE075
:10124000002000210C9100F08BFC422013E00020D4
:1012500000210C9100F084FC4C200CE000200021C7
:101260000C9100F07DFC522005E0002000210C9143
:1012700000F076FC53200EA900F066FB4FF0000A48
:101280004FF0000B0DF13F040126B9F1000F08BF2C
:101290004FF00609E4E685B1012D1CD10C984FF002
:1012A000000BC0B203280DF13F044FF001063ED001
:1012B00067A0162100F026F9E7E7032003210C912F
:1012C00000F04EFC00F0FCF84FF0000ACDF838A01A
:1012D0005CA00A2108E0022F01D0012F07D142F2C1
:1012E0009710C0F60000162100F00CF9C8E7012E97
:1012F0002FD10C98C0B200F033FCFFF7A7FC00F030
:1013000063FC00F05FFE00F00DFC00F061FD0446A0
:1013100000F072FD054600F091FD02462046294688
:1013200000F088FC00F0D4FB53A00C21DCE700F0B7
:10133000D5FC012001210C9100F012FC4AA00E21E5
:1013400000F0E0F800200A9000200B904FF0010A16
:101350009BE7BBF1FF3F05DD42F2F210C0F6000053
:101360001821C1E742F28210C0F600001421BBE749
:1013700041F20000C4F201004FF40051FFF752F8AF
:101380004FF0000982E500F0A9FC012001210C9139
:1013900000F0E6FB14A0142100F0B4F800200A903D
:1013A00000200B904FF0010A26E6FFF73BF84FF0C4
:1013B00000090096012669E540F2F400C2F200003F
:1013C00000684FF4005108900198002880F0010651
:1013D00041F20000C4F201003FF448ADFFF724F8E9
:1013E000A9F1010944E500BF4F4B3A206F627374C5
:1013F00061636C6520636C6561720D0A000000001A
:101400004572726F723A20636F6D6D616E64207405
:101410006F6F206C6F6E670D0A0000004F4B3A2013
:10142000747261636B206F66660D0A004F4B3A2041
:10143000747261636B0D0A00676F000073746F70E4
:10144000000000004F4B3A20686F6C640D0A0000EA
:101450004572726F723A206E6F20776169742073E3
:10146000746174650D0A00004F4B3A20636F6E740F
:10147000696E75650D0A00004F4B3A2073746174F4
:1014800075730D0A0000000080B5FFF7B3FB80BD47
:1014900080B5FFF7D5FB80BD80B5FFF755FC80BD5B
:1014A00080B500F09DF880BD80B5FFF7D5FB80BD0D
:1014B00080B5FFF7F7FB80BD80B5FFF719FC80BD55
:1014C00080B500F0E5FB80BDF0B581B040F2F406D8
:1014D000C2F20006376844F600050446C4F200056F
:1014E00028468021FFF762FA28B93068C01B3128EE
:1014F000F6D901B0F0BD28462146FFF7EDFA01B05C
:10150000F0BD0000B0B5002908BFB0BD0C46451EB7
:1015100015F8010F013CFFF7D7FF002CF8D1B0BD43
:1015200010B544F60004C4F20004204640F22551F0
:10153000FFF742FA10B32046FFF7CAFA40F2E8017B
:10154000C2F200010A8840F2F003C2F20003013245
:101550001B8802F07F029A4207D140F2EC00C2F2EF
:10156000000001680131016008E0B1F800C040F2FC
:101570006803C2F2000303F80C000A802046082129
:10158000FFF714FA002808BF10BD2046FFF7A0FAA5
:1015900020460821FFF7FCF910BD000040F2E801E9
:1015A000C2F200010A8840F2F001C2F200010B8889
:1015B0009A4204BF002070470A8840F26803C2F2D2
:1015C00000039A5C02700888013000F07F000880F8
:1015D0000120704740F2EC00C2F200000068704742
:1015E00070B588B008200121FEF7AAFF0420012170
:1015F000FEF79AFF40F6000440F20030C4F2000407
:10160000C1F6030004F5823507AE0790284631463F
:10161000FEF7AAFE4FF20000C1F201000790284633
:101620003146FEF7A1FE04AD2846FFF7A1F9472099
:10163000ADF810000020C0F2E7300026CDF812000F
:1016400020462946ADF81660FFF73CF96D4628465E
:10165000FFF72CF96020C0F20100009020462946D7
:10166000CDF80660FFF7A8F820462946FFF7E6F810
:1016700020460821FFF7DCF820460821FFF70EF985
:1016800020460121FFF784F820460121FFF78AF860
:101690002820FFF72DFB00F0FBFA08B070BD00001A
:1016A000027842F02002762A1CBF00207047427860
:1016B000CAB14378D3B1821C4FF0000CA3F13000C3
:1016C000092810D80CEB8C0003EB4000A0F1300C83
:1016D000BCF1640FC4BF4FF0FF30704712F8013BFC
:1016E000002BEBD104E04FF0FF3070474FF0000CBF
:1016F000012081F800C0704710B50CA10446FEF728
:10170000AFFD88B10BA12046FEF7AAFD60B10BA189
:101710002046FEF7A5FD38B10AA12046FEF7A0FD40
:10172000B0FA80F0400910BD012010BD73746174DF
:101730007573000053544154555300006469616748
:1017400000000000444941470000000010B513A10B
:101750000446FEF785FDE0B112A12046FEF780FDAC
:10176000B8B112A12046FEF77BFD90B112A1204630
:10177000FEF776FD68B113A12046FEF771FD50B16A
:1017800013A12046FEF76CFD002818BF4FF0FF3074
:1017900010BD012010BD002010BD00BF7472616338
:1017A0006B000000545241434B00000074726163AF
:1017B0006B5F6F6E00000000545241434B5F4F4E11
:1017C00000000000747261636B5F6F66660000006A
:1017D000545241434B5F4F464600000010B518A1DC
:1017E0000446FEF73DFD30B318A12046FEF738FD54
:1017F00008B319A12046FEF733FDE0B118A1204639
:10180000FEF72EFDB8B118A12046FEF729FDA0B1C4
:1018100017A12046FEF724FD78B117A12046FEF758
:101820001FFD50B116A12046FEF71AFD002818BF73
:101830004FF0FF3010BD012010BD002010BD00BFD3
:10184000636F6E74696E756500000000434F4E54FF
:10185000494E554500000000726573756D650000C6
:10186000524553554D450000686F6C640000000000
:10187000484F4C440000000077616974000000008C
:10188000574149540000000010B518A10446FEF766
:10189000E7FC30B317A12046FEF7E2FC08B317A11E
:1018A0002046FEF7DDFCE0B116A12046FEF7D8FC8D
:1018B000B8B116A12046FEF7D3FCA0B115A1204671
:1018C000FEF7CEFC78B115A12046FEF7C9FC50B159
:1018D00015A12046FEF7C4FCB0FA80F04009400094
:1018E00010BD012010BD022010BD00BF736E6170DD
:1018F00000000000534E41500000000070686F74FB
:101900006F00000050484F544F0000006B70696E2C
:10191000670000004B50494E4700000070696E6739
:101920006B3231300000000050494E474B323130AD
:101930000000000080B5FFF789F9002808BFFFF715
:1019400083F9FFF7B9FD80BD10B54238112888BF73
:1019500010BD0C46DFE800F0093939391139393941
:1019600039391939393939392129FFF7E3FFFFF7B7
:101970008BFD012020601BA024E0FFF7DBFFFFF7B9
:1019800087FD0120206019A01CE0FFF7D3FFFFF7BF
:101990008BFD0120206011A014E0FFF7CBFFFFF7C3
:1019A00087FD012020600BA00CE0FFF789FD0020DF
:1019B000206041F20000C4F201004FF40051FEF734
:1019C00031FD02A00721FFF79DFD10BD4F4B3A20CE
:1019D000530D0A004F4B3A20520D0A004F4B3A204C
:1019E0004C0D0A004F4B3A20420D0A004F4B3A2053
:1019F000460D0A00B0B594B06C4626A220460021E0
:101A0000FFF77EF805467A20FEF700FE28B124A2F3
:101A100068462946FFF774F805467B20FEF7F6FD79
:101A200028B121A268462946FFF76AF805467C20BE
:101A3000FEF7ECFD28B11EA268462946FFF760F8C4
:101A400005467D20FEF7E2FD28B11BA26846294627
:101A5000FFF756F805467E20FEF7D8FD28B118A2FC
:101A600068462946FFF74CF805467F20FEF7CEFD75
:101A700028B115A268462946FFF742F8054640F608
:101A80000D206053A91C2046FFF73CFDFEF764FDC6
:101A900014B0B0BD4D43553A424F4F5400000000C2
:101AA0003A50494E000000003A504F5200000000EA
:101AB0003A534654000000003A495744470000009A
:101AC0003A575744470000003A4C50575200000024
:101AD000B0B588B06C460BA220460021FFF710F885
:101AE0000546FFF777FD024620462946FFF718F81E
:101AF00040F60D212152811C2046FFF703FD08B05E
:101B0000B0BD00BF42545F52585F4F56463A000086
:101B100010B50446FEF784FB01462046FFF7F2FCB1
:101B200010BD0000B0B58CB06D4604460AA2284630
:101B30000021FEF7E5FF014628462246FEF7F0FFAA
:101B400046F66D51C0F60D212950011D2846FFF7BC
:101B5000D9FC0CB0B0BD00BF444953543A0000005A
:101B6000032888BF704780B540B204A151F8200017
:101B7000FFF7CEFFBDE88040704700BFBE210008E0
:101B8000AE210008CC210008E1210008B0B58CB0DE
:101B90006D4604460AA228460021FEF7B1FF014621
:101BA00028462246FEF7BCFF46F66D51C0F60D21D1
:101BB0002950011D2846FFF7A5FC0CB0B0BD00BFA1
:101BC0004F42533A00000000B0B586B001AD044664
:101BD00009A228460021FEF793FF01462846224627
:101BE000FEF79EFF40F60D212952811C2846FFF783
:101BF00089FC06B0B0BD00BF53504545443A0000D3
:101C000010B584B0024644F64F30C2F23A0001905B
:101C1000562001AC8DF8080020460521FEF780FF14
:101C200040F60D212152811C2046FFF76BFC04B0C9
:101C300010BD0000F0B585B06C4615460E4607464F
:101C400011A220460021FEF75BFF3122002F08BFC2
:101C500030223121231822542C22002E4FF031073C
:101C60005A7008BF30279F70DA70002D08BF3021EE
:101C7000197140F60D21A3F80510C11D2046FFF78C
:101C800041FC05B0F0BD00BF545241434B3A000047
:101C900010B540F2F200C2F2000000210170FEF720
:101CA00071FF40F60044C4F2010420464FF4805115
:101CB000FEF7B8FB20464FF40051FEF7B3FB204679
:101CC0004FF48041FEF7AEFB20464FF40041FEF793
:101CD000A9FB10BD80B5FEF7B9FF80BD40F2F8004A
:101CE000C2F200000021017040F2FC00C2F20000CC
:101CF0000160704780B5FFF711F8FFF725F880BD48
:101D000080B500F08DF840F20111C2F200010A78AE
:101D1000904240F20012C2F2000204D11078022870
:101D200004D8013001E008700120107010780328F9
:101D300040F20210C2F2000024BF0978017000785E
:101D400080BD0000B0B582B00C200121FEF7F8FB89
:101D5000302040F60004C0F20140C4F2010401AD9D
:101D6000019020462946FEF7FFFA0220ADF8040054
:101D700004F580602946FEF7F7FA00F051F840F2CA
:101D80000211C2F20001087040F20111C2F200011A
:101D9000087040F20010C2F200000321017040F20E
:101DA000F800C2F200000021017040F2FC00C2F213
:101DB0000000016002B0B0BD0138B0FA80F0400907
:101DC00070470000490041EA80001043C0B27047EC
:101DD00080B500F037F880BD80B500F003F8FFF75C
:101DE000EBFF80BD80B540F60000C4F20100102179
:101DF000FEF712FB80BD000080B500F001F880BD49
:101E000080B500F003F8FFF7D7FF80BD80B540F63E
:101E10000000C4F201002021FEF7FEFA80BD0000A0
:101E2000B0B5FFF7D9FF0446FFF7EAFF054600F01B
:101E300009F829462246FFF7C5FFB0BD80B5FFF778
:101E4000CBFF80BD80B500F003F8FFF7B5FF80BD84
:101E500080B540F60040C4F201000221FEF7DCFA32
:101E600080BD000070B5FFF735FF3C21044600F04F
:101E700069F805462046192100F064F894B1064639
:101E8000FFF73EFF072811D8DFE800F0101A0423FF
:101E90002C04344040F2FC00C2F20000002101603A
:101EA00020462EE0FFF7F4FE002070BD40F2FC005B
:101EB000C2F2000000240460FFF7EAFE204670BD75
:101EC00040F2FC00C2F200000021016020463146D1
:101ED00018E040F2FC00C2F2000000210160204640
:101EE00029460FE040F2FC00C2F200000021016030
:101EF000304606E040F2FC00C2F200000021016022
:101F000028462146FFF7F6FE012070BD40F2FC0096
:101F1000C2F2000040F2F4020168C2F2000212684C
:101F200061B1501AC8280AD3FFF7B2FE40F2F80098
:101F3000C2F2000001210170002070BD026000208B
:101F400070BD000060B1414348F21F50C5F2EB1074
:101F5000A1FB00025009642938BF0120C0B27047BC
:101F60000020C0B27047000040F2F800C2F200004A
:101F70000078704780B54EF2180C40F20001CEF2A6
:101F8000000CC2F20001DCF800E009684DF6836342
:101F9000C4F21B33A1FB0313990C48435CF8041CE7
:101FA000002808BF80BD4B1C002100BFDCF80020CA
:101FB0007144891A964538BF194481429646F5D333
:101FC00080BD0000F0B581B040F60004C4F2010409
:101FD00020464FF40061FEF725FA0220FFF7CAFF02
:101FE00020464FF40061FEF71FFA0C20FFF7C2FFF6
:101FF00020464FF40061FEF715FA40F2F405C2F2F4
:1020000000052E6820464FF48051FEF705FA20B9EE
:102010002868801B1D28F5D913E000256FF0010604
:1020200046F2A51720464FF48051FEF7F5F9012836
:102030000AD10220FFF79EFF0236BE4205F12205BB
:10204000F0D9002001B0F0BD48F21F50C5F2EB10EE
:10205000A5FB0001480901B0F0BD0000B0B582B099
:1020600004200121FEF76CFA40F6000040F600045F
:10207000C1F20200C4F2010401AD019020462946DC
:10208000FEF772F920464FF40061FEF7CBF94FF4EA
:102090008050ADF8040028208DF80700204629461E
:1020A000FEF762F902B0B0BD70B586B0082001211C
:1020B000FEF746FA4FF480200121FEF735FA44F688
:1020C000000440F20040C4F20004C1F6030004F52D
:1020D000444505AE059028463146FEF745F94FF4D4
:1020E0000060ADF8140048208DF8170028463146EE
:1020F000FEF73AF94FF4E13001904FF4402000250B
:10210000039001A920460295ADF81050FEF784FC1B
:1021100040F2E800C2F20000058040F2F000C2F296
:1021200000000580204640F225510122FEF75CFCAC
:102130002720C0F2001000906846FEF7B9F920464B
:102140000121FEF729FC06B070BD000080B545F204
:102150005550FEF789F90620FEF77AF940F6FF7030
:10216000FEF77CF9FEF76CF9FEF762F980BD020418
:102170000608000000000102030401020304060730
:1021800008094572726F723A207370656564203079
:102190002D3130300D0A004572726F723A204B3289
:1021A00031302075736573205553420D0A004D4F31
:1021B00044453A545241434B494E470D0A004D4F56
:1021C00044453A4D414E55414C0D0A004D4F444552
:1021D0003A4F42535441434C455F53544F500D0ABC
:1021E000004D4F44453A574149545F555345520DB0
:1021F0000A004572726F723A20756E6B6E6F776E61
:1022000020636F6D6D616E640D0A004F4B3A20675D
:102210006F0D0A004F4B3A2073746F700D0A000067
:1022200040220008000000200800000028010008EB
:1022300048220008080000200007000044010008B0
:0822400000A24A04282828002E
:04000005080000ED02
:00000001FF
